{
  "_format": "hh-sol-artifact-1",
  "contractName": "AgentStore",
  "sourceName": "contracts/AgentStore.sol",
  "abi": [
    {
      "anonymous": false,
      "inputs": [
        {
          "components": [
            {
              "internalType": "string",
              "name": "id",
              "type": "string"
            },
            {
              "internalType": "string",
              "name": "signature",
              "type": "string"
            },
            {
              "internalType": "address",
              "name": "owner",
              "type": "address"
            }
          ],
          "indexed": false,
          "internalType": "struct Agent",
          "name": "agent",
          "type": "tuple"
        },
        {
          "indexed": false,
          "internalType": "uint256",
          "name": "timestamp",
          "type": "uint256"
        }
      ],
      "name": "Added",
      "type": "event"
    },
    {
      "inputs": [
        {
          "components": [
            {
              "internalType": "string",
              "name": "id",
              "type": "string"
            },
            {
              "internalType": "string",
              "name": "signature",
              "type": "string"
            },
            {
              "internalType": "address",
              "name": "owner",
              "type": "address"
            }
          ],
          "internalType": "struct Agent",
          "name": "req",
          "type": "tuple"
        }
      ],
      "name": "add",
      "outputs": [],
      "stateMutability": "nonpayable",
      "type": "function"
    },
    {
      "inputs": [
        {
          "internalType": "string",
          "name": "agent_id",
          "type": "string"
        }
      ],
      "name": "get",
      "outputs": [
        {
          "components": [
            {
              "internalType": "string",
              "name": "id",
              "type": "string"
            },
            {
              "internalType": "string",
              "name": "signature",
              "type": "string"
            },
            {
              "internalType": "address",
              "name": "owner",
              "type": "address"
            }
          ],
          "internalType": "struct Agent",
          "name": "",
          "type": "tuple"
        }
      ],
      "stateMutability": "view",
      "type": "function"
    },
    {
      "inputs": [],
      "name": "total",
      "outputs": [
        {
          "internalType": "uint256",
          "name": "",
          "type": "uint256"
        }
      ],
      "stateMutability": "view",
      "type": "function"
    }
  ],
  "bytecode": "0x608060405234801561001057600080fd5b50610ccf806100206000396000f3fe608060405234801561001057600080fd5b50600436106100415760003560e01c80632ddbd13a14610046578063693ec85e14610064578063c6ea2eed14610094575b600080fd5b61004e6100b0565b60405161005b9190610510565b60405180910390f35b61007e6004803603810190610079919061059a565b6100b9565b60405161008b919061070f565b60405180910390f35b6100ae60048036038101906100a99190610755565b61026e565b005b60008054905090565b6100c16104c0565b600183836040516100d39291906107dd565b90815260200160405180910390206040518060600160405290816000820180546100fc90610825565b80601f016020809104026020016040519081016040528092919081815260200182805461012890610825565b80156101755780601f1061014a57610100808354040283529160200191610175565b820191906000526020600020905b81548152906001019060200180831161015857829003601f168201915b5050505050815260200160018201805461018e90610825565b80601f01602080910402602001604051908101604052809291908181526020018280546101ba90610825565b80156102075780601f106101dc57610100808354040283529160200191610207565b820191906000526020600020905b8154815290600101906020018083116101ea57829003601f168201915b505050505081526020016002820160009054906101000a900473ffffffffffffffffffffffffffffffffffffffff1673ffffffffffffffffffffffffffffffffffffffff1673ffffffffffffffffffffffffffffffffffffffff1681525050905092915050565b600060018280600001906102829190610865565b6040516102909291906107dd565b908152602001604051809103902060000180546102ac90610825565b9050146102ee576040517f08c379a00000000000000000000000000000000000000000000000000000000081526004016102e590610925565b60405180910390fd5b6000604051806060016040528083806000019061030b9190610865565b8080601f016020809104026020016040519081016040528093929190818152602001838380828437600081840152601f19601f8201169050808301925050505050505081526020018380602001906103639190610865565b8080601f016020809104026020016040519081016040528093929190818152602001838380828437600081840152601f19601f8201169050808301925050505050505081526020013373ffffffffffffffffffffffffffffffffffffffff1681525090508060018380600001906103da9190610865565b6040516103e89291906107dd565b9081526020016040518091039020600082015181600001908161040b9190610b20565b5060208201518160010190816104219190610b20565b5060408201518160020160006101000a81548173ffffffffffffffffffffffffffffffffffffffff021916908373ffffffffffffffffffffffffffffffffffffffff16021790555090505060008081548092919061047e90610c21565b91905055507f428d7e9655012a7b6cd787cb9b20534c8246705a9fe14d6dacdd3eb51d9f308881426040516104b4929190610c69565b60405180910390a15050565b60405180606001604052806060815260200160608152602001600073ffffffffffffffffffffffffffffffffffffffff1681525090565b6000819050919050565b61050a816104f7565b82525050565b60006020820190506105256000830184610501565b92915050565b600080fd5b600080fd5b600080fd5b600080fd5b600080fd5b60008083601f84011261055a57610559610535565b5b8235905067ffffffffffffffff8111156105775761057661053a565b5b6020830191508360018202830111156105935761059261053f565b5b9250929050565b600080602083850312156105b1576105b061052b565b5b600083013567ffffffffffffffff8111156105cf576105ce610530565b5b6105db85828601610544565b92509250509250929050565b600081519050919050565b600082825260208201905092915050565b60005b83811015610621578082015181840152602081019050610606565b60008484015250505050565b6000601f19601f8301169050919050565b6000610649826105e7565b61065381856105f2565b9350610663818560208601610603565b61066c8161062d565b840191505092915050565b600073ffffffffffffffffffffffffffffffffffffffff82169050919050565b60006106a282610677565b9050919050565b6106b281610697565b82525050565b600060608301600083015184820360008601526106d5828261063e565b915050602083015184820360208601526106ef828261063e565b915050604083015161070460408601826106a9565b508091505092915050565b6000602082019050818103600083015261072981846106b8565b905092915050565b600080fd5b60006060828403121561074c5761074b610731565b5b81905092915050565b60006020828403121561076b5761076a61052b565b5b600082013567ffffffffffffffff81111561078957610788610530565b5b61079584828501610736565b91505092915050565b600081905092915050565b82818337600083830152505050565b60006107c4838561079e565b93506107d18385846107a9565b82840190509392505050565b60006107ea8284866107b8565b91508190509392505050565b7f4e487b7100000000000000000000000000000000000000000000000000000000600052602260045260246000fd5b6000600282049050600182168061083d57607f821691505b6020821081036108505761084f6107f6565b5b50919050565b600080fd5b600080fd5b600080fd5b6000808335600160200384360303811261088257610881610856565b5b80840192508235915067ffffffffffffffff8211156108a4576108a361085b565b5b6020830192506001820236038313156108c0576108bf610860565b5b509250929050565b600082825260208201905092915050565b7f4167656e7420616c726561647920766572696669656400000000000000000000600082015250565b600061090f6016836108c8565b915061091a826108d9565b602082019050919050565b6000602082019050818103600083015261093e81610902565b9050919050565b7f4e487b7100000000000000000000000000000000000000000000000000000000600052604160045260246000fd5b60008190508160005260206000209050919050565b60006020601f8301049050919050565b600082821b905092915050565b6000600883026109d67fffffffffffffffffffffffffffffffffffffffffffffffffffffffffffffffff82610999565b6109e08683610999565b95508019841693508086168417925050509392505050565b6000819050919050565b6000610a1d610a18610a13846104f7565b6109f8565b6104f7565b9050919050565b6000819050919050565b610a3783610a02565b610a4b610a4382610a24565b8484546109a6565b825550505050565b600090565b610a60610a53565b610a6b818484610a2e565b505050565b5b81811015610a8f57610a84600082610a58565b600181019050610a71565b5050565b601f821115610ad457610aa581610974565b610aae84610989565b81016020851015610abd578190505b610ad1610ac985610989565b830182610a70565b50505b505050565b600082821c905092915050565b6000610af760001984600802610ad9565b1980831691505092915050565b6000610b108383610ae6565b9150826002028217905092915050565b610b29826105e7565b67ffffffffffffffff811115610b4257610b41610945565b5b610b4c8254610825565b610b57828285610a93565b600060209050601f831160018114610b8a5760008415610b78578287015190505b610b828582610b04565b865550610bea565b601f198416610b9886610974565b60005b82811015610bc057848901518255600182019150602085019450602081019050610b9b565b86831015610bdd5784890151610bd9601f891682610ae6565b8355505b6001600288020188555050505b505050505050565b7f4e487b7100000000000000000000000000000000000000000000000000000000600052601160045260246000fd5b6000610c2c826104f7565b91507fffffffffffffffffffffffffffffffffffffffffffffffffffffffffffffffff8203610c5e57610c5d610bf2565b5b600182019050919050565b60006040820190508181036000830152610c8381856106b8565b9050610c926020830184610501565b939250505056fea2646970667358221220f03800059ea2325854ebcd3691225749ec8666e92b9d56f4bbde2dc91b76568f64736f6c63430008180033",
  "linkReferences": {},
  "deployedLinkReferences": {}
}